{
  "contractName": "Test",
  "abi": [
    {
      "constant": false,
      "inputs": [],
      "name": "f",
      "outputs": [
        {
          "name": "",
          "type": "string"
        }
      ],
      "payable": false,
      "stateMutability": "nonpayable",
      "type": "function"
    },
    {
      "constant": false,
      "inputs": [],
      "name": "g",
      "outputs": [
        {
          "name": "",
          "type": "string"
        }
      ],
      "payable": false,
      "stateMutability": "nonpayable",
      "type": "function"
    }
  ],
  "bytecode": "0x6060604052341561000f57600080fd5b6102338061001e6000396000f30060606040526004361061004c576000357c0100000000000000000000000000000000000000000000000000000000900463ffffffff16806326121ff014610051578063e2179b8e146100df575b600080fd5b341561005c57600080fd5b61006461016d565b6040518080602001828103825283818151815260200191508051906020019080838360005b838110156100a4578082015181840152602081019050610089565b50505050905090810190601f1680156100d15780820380516001836020036101000a031916815260200191505b509250505060405180910390f35b34156100ea57600080fd5b6100f26101b0565b6040518080602001828103825283818151815260200191508051906020019080838360005b83811015610132578082015181840152602081019050610117565b50505050905090810190601f16801561015f5780820380516001836020036101000a031916815260200191505b509250505060405180910390f35b6101756101f3565b6040805190810160405280600a81526020017f6d6574686f642066282900000000000000000000000000000000000000000000815250905090565b6101b86101f3565b6040805190810160405280600a81526020017f6d6574686f642067282900000000000000000000000000000000000000000000815250905090565b6020604051908101604052806000815250905600a165627a7a72305820123ef5eef3198549eae94c5a8325de17827a91703984bcf00ec132d47f5d60f00029",
  "source": "pragma solidity ^0.4.17;\r\n\r\ncontract Test{\r\n\r\n    function f() public returns (string) {\r\n        return \"method f()\";\r\n    }\r\n\r\n    function g() public returns (string) {\r\n        return \"method g()\";\r\n    }\r\n}",
  "sourcePath": "F:\\Ethereum Smart contract\\smart-contract-tutorial\\contracts\\Test.sol",
  "compiler": {
    "name": "solc",
    "version": "0.4.19+commit.c4cbbb05.Emscripten.clang"
  },
  "schemaVersion": "2.0.0",
  "updatedAt": "2018-03-26T16:15:33.822Z"
}